:100000006DC08FC284C083C082C081C080C07FC0E9
:100010007EC07DC07CC07BC07AC079C078C006003D
:10002000FF0901A101150025017501850296200037
:100030000900B20201C00902220001010080320958
:100040000400000103000000092101010001221841
:100050000007058103080064120110010000000878
:10006000C016DF0500010102000114034400650011
:100070006C007500780065005500530042005A037B
:1000800068006100660074006D0061006E006E0023
:10009000230073006F006600740077006100720037
:1000A0006500200028007700770077002E0074009C
:1000B00075002D006300680065006D006E0069002A
:1000C00074007A002E00640065002F007E00680036
:1000D00065006800610029000403090411241FBEA3
:1000E000CFEDCDBF10E0A0E6B0E0EAEFF7E003C04F
:1000F000C89531960D92A236B107D1F710E0A2E66D
:10010000B0E001C01D92AF39B107E1F744C078CF2C
:1001100090E0482A87FB93F998BB86FBC49A93F931
:1001200098BB85FBC49A93F998BB84FBC49A93F956
:1001300098BB83FBC49A93F998BB82FBC49A93F94A
:1001400098BB81FBC49A93F998BB80FBC49A93F93E
:1001500098BB0000C49A0895C09A000018BA242CD5
:100160000895442480916700D3DF80916600D0DF3A
:1001700080916500CDDF80916400CADFEDDF0895D6
:10018000CF934424C3E080E0C3DFC150C7FFFBCF5F
:10019000E3DFCF910895CFEDD0E0DEBFCDBFDD240A
:1001A00084B7D4BE479A99E197BB98E191BDD1BC81
:1001B00083FF11C086B3992786709070892B59F000
:1001C0002110DEDF80E48BBF84EF85BF80EF85BF29
:1001D00078948895F89480E685BF8BE080BD82E0B6
:1001E00083BFCEDF552488E081BD8BB780648BBF91
:1001F0008BE4809374008AE580937300789486B3CF
:10020000992786709070892B09F08895009182005B
:10021000C02ECD1831F486B3992786709070892B43
:1002200009F4A89590918500935097FDE2C08091C4
:10023000810025E9E22E20E0F22EE81AF1088091F3
:1002400080008D3209F0A7C0983009F0D0C083EC4F
:10025000809368006AE56093600010926200FF2D51
:10026000EE2D8081807621818823C9F083E690E09D
:100270009093840080938300213039F457FC71DF20
:100280009CE0592E85E090E008C0293021F4332409
:100290008FEF90E002C080E090E0982F65C0382F8B
:1002A00041E750E0FF2DEE2D9281809371002223D3
:1002B00021F48093720032E052C0253019F49093FB
:1002C00086004DC02630C1F5282FFF2DEE2D8381ED
:1002D000813021F422E188E590E025C0823021F4CC
:1002E00022E286E390E01FC0833091F4992321F449
:1002F00024E088ED90E017C0913021F4262F8EE79E
:1003000090E011C0923099F424E18AE690E00BC0AD
:10031000813221F429E088E490E005C0823239F48A
:1003200028E18EE190E0909384008093830080E444
:1003300080936200322F17C0283019F448E850E04B
:1003400007C0293019F49093880009C02A3011F4AD
:1003500031E005C02B3019F48BE480937400509386
:10036000840040938300932F9F3F49F4FF2DEE2D8F
:10037000808187FD968180E88093620009C0FF2D0F
:10038000EE2D8781882321F46681691708F4962F62
:10039000909361002CC08091620087FF28C0C92F14
:1003A00015E01319191708F4C12F232D33278C2FAB
:1003B0009927482F592F7F2D6E2D932F822F8D59DE
:1003C0009F4F10D23C0E1C1731F4CBDE8CE0582E20
:1003D00021E030E002C020E030E02F3F21F48EE148
:1003E0008093600004C0222311F0109261001092EB
:1003F00085008091600084FF3FC0809161008F3F45
:1004000009F43AC0682F893008F068E0861B8093B1
:1004100061008091680098E8892780936800A9E6C8
:10042000B0E06623C1F0962FE0918300F091840044
:100430008091620086FF07C0C895802D8D9331960C
:100440009150D1F704C081918D939150E1F7F093D1
:100450008400E09383007727C62F693038F489E65B
:1004600090E048D0CC5FCC3028F401C0CEE18FEFD3
:1004700080936100C093600094E186B3867031F48C
:100480009150D9F79093860090937F00CC2009F487
:10049000B6CED02E91B39E50993F1CF481B78F5F9A
:1004A00081BF98301CF081B7815081BF002309F0D3
:1004B000A6CE5A940CF0A3CEF8ED5F1619F4C39AA9
:1004C0004528502EC49A48DE9ACEA82FB92F80E036
:1004D00090E041E050EA609530E009C02D9182271C
:1004E0009795879510F084279527305EC8F36F5F46
:1004F000A8F30895EADF8D939D930895A6E08827D9
:100500009927AA9569F00197E1F3B299FCCFB29BC4
:10051000FECF81E09927A6B3019611F0A670D9F716
:100520000895CF93CFB7CF93C395B29BE9F7B29B12
:1005300017C0B29B15C0B29B13C0B29B11C0B29B37
:100540000FC0B29B0DC0C0918200C395C0938200C2
:10055000C2B7D3BBD2B3C2BBCD1BC1BBD3B3CEC01A
:100560000F92DF93C0918100DD27C757DF4F012E27
:10057000B29B03C0DF910F90DACF2F930F931F939D
:100580004F932FEF4F6F06B302FB20F95F933F931A
:1005900050E03BE065C016B30126502952FDC895D6
:1005A00056B3012702FB25F92F7306B3B1F050278C
:1005B000102712FB26F906B22230F0F000C016B365
:1005C000012702FB27F90126502906B22430E8F55D
:1005D0004F77206816B30000F6CF50274F7D20627A
:1005E00006B2102F000000C006B3002650291027C5
:1005F00012FB26F906B2E2CF4F7B06B3206400C09F
:10060000DACF01265029167006B269F14E7F2160BB
:10061000012F16B328C0002650294D7F06B2226054
:10062000102F29C0012650294B7F06B22460012FCC
:100630002DC016B301265029477F2860000006B25E
:100640002EC04F7E06B3206130C0422706B34993C7
:1006500000265029102706B24FEF12FB20F9297F00
:1006600016B379F2167049F10126502906B2012716
:1006700002FB21F9237F06B371F200265029315085
:10068000D0F006B2102712FB22F9277E16B351F2E2
:1006900001265029012702FB06B223F92F7C49F2DB
:1006A000000006B3102712FB24F90026502906B2D9
:1006B0002F7939F270CF002717C03B503195C31BFB
:1006C000D0400881033CF1F00B34E1F020917F0031
:1006D0001981110F1213EFCF4A81441F093639F1E6
:1006E0000D3211F0013E39F7009387003F915F9181
:1006F0004F911F910F912F91DF910F90CF91CFBF0D
:10070000CF91189520918700222381F310918500C5
:10071000112379F534307AF13093850020938000ED
:10072000109181003BE0311B3093810024C0009187
:1007300085000130F4F40AE54F7049F4309160000F
:1007400034FD1AC000936000C8E6D0E019C03091B3
:10075000730034FD11C000937300C4E7D0E010C0F3
:10076000052710E000C021C0052710E0C89508BB90
:1007700014C03AE501C032ED032EC0E0D0E032E013
:1007800017B31660C29A08B317BB56E020E84FEFC4
:1007900020FF052708BB279517951C3F28F7000069
:1007A0004552B0F720FF0527279508BB17951C3F3A
:1007B000B8F629913A9561F7097F10918600110FDB
:1007C00008BBC250D04011F010937F00046017B3F3
:1007D000197F402F497F54E05A95F1F708BB17BBAA
:1007E00048BB84CFE62FF72FA82FB92F02C0019066
:0A07F0000D9241505040D8F70895D3
:0207FA005AFFA4
:00000001FF
