:1000000078C090C056C28EC08DC08CC08BC08AC0D4
:1000100089C088C087C086C085C084C083C082C0B4
:1000200081C080C07FC00600FF0901A10115002525
:1000300001750185029620000900B20201C0090283
:1000400022000101008032090400000103000000C9
:10005000092101010001221800070581030800643D
:100060001201100100000008C016DF0500010102A6
:1000700000011C03440065006C00750078006500F9
:100080005500530042006D007500780032005A039D
:1000900068006100660074006D0061006E006E0013
:1000A000230073006F006600740077006100720027
:1000B0006500200028007700770077002E0074008C
:1000C00075002D006300680065006D006E0069001A
:1000D00074007A002E00640065002F007E00680026
:1000E00065006800610029000403090473537271FC
:1000F000633311241FBECFEDCDBF10E0A0E6B0E00A
:10010000E4E3F7E003C0C89531960D92A236B1073B
:10011000D1F710E0A2E6B0E001C01D92A03AB1070D
:10012000E1F701C06DCFCFEDD0E0DEBFCDBFFF2442
:1001300084B7F4BE479A9FEF97BB23E722BB21BB4E
:1001400098E191BDF1BC83FF11C080B399278C70F9
:100150009070892B59F0662011F06F2C22BB80E83B
:100160008BBF80E385BF78948895F89480E285BF43
:10017000552488E081BD8BB780688BBF8BE480936A
:1001800075008AE580937400789480B399278C7009
:100190009070892B09F0889500918300E02EEF186C
:1001A00031F480B399278C709070892B09F4A8954D
:1001B00090918600935097FDD2C080918200E6E92D
:1001C000F0E0E81BF109809181008D3209F099C0BF
:1001D000983009F0C2C083EC809369006AE56093AF
:1001E0006000109262007081872F807621818823C1
:1001F000A9F083E690E090938500809384002130FD
:1002000019F485E090E008C0293021F433248FEF01
:1002100090E002C080E090E0982F61C0382F42E764
:1002200050E0928180937200222321F48093730026
:1002300032E050C0253019F4909387004BC026302F
:10024000B1F5282F8381813021F422E180E690E00E
:1002500025C0823021F422E28EE390E01FC083307B
:1002600091F4992321F424E088EE90E017C09130B6
:1002700021F4262F8EE890E011C0923099F42CE101
:1002800082E790E00BC0813221F429E080E590E024
:1002900005C0823239F428E186E290E0909385002F
:1002A0008093840080E480936200322F17C028304E
:1002B00019F449E850E007C0293019F490938900F7
:1002C00009C02A3011F431E005C02B3019F48BE459
:1002D000809375005093850040938400932F9F3F37
:1002E00031F477FD968180E88093620007C08781B2
:1002F000882321F46681691708F4962F9093610092
:100300002CC08091620087FF28C0C92F15E0131907
:10031000191708F4C12F232D33278C2F9927482F25
:10032000592F6E2F7F2F932F822F8D599F4FF7D1EB
:100330003C0E1C1731F4662009F4639421E030E090
:1003400002C020E030E02F3F21F48EE18093600076
:1003500004C0222311F01092610010928600809157
:10036000600084FF3FC0809161008F3F09F43AC074
:10037000682F893008F068E0861B809361008091C7
:10038000690098E8892780936900AAE6B0E06623AF
:10039000C1F0962FE0918400F09185008091620079
:1003A00086FF07C0C895802D8D9331969150D1F767
:1003B00004C081918D939150E1F7F0938500E09313
:1003C00084007727C62F693038F48AE690E05AD047
:1003D000CC5FCC3028F401C0CEE18FEF8093610078
:1003E000C093600094E180B38C7031F49150D9F7E0
:1003F0009093870090938000EE2009F4C6CE66208B
:10040000A1F018BA639485E0861510F481E0682E97
:10041000A62DBB27FB2FEA2FE451FF4FC895802D57
:1004200082BBAD59BF4F8C9188BBF02E002309F0E1
:10043000ACCE5A940CF0A9CE80916800880F8093BE
:10044000680080EF581609F0A0CE81E08093680024
:10045000662009F4680E502E98CEA82FB92F80E0A0
:1004600090E041E050EA609530E009C02D9182278C
:100470009795879510F084279527305EC8F36F5FB6
:10048000A8F30895EADF8D939D930895A6E0882749
:100490009927AA9569F00197E1F38399FCCF839B93
:1004A000FECF81E09927A0B3019611F0AC70D9F787
:1004B0000895CF93CFB7CF93C395839BE9F7839BE1
:1004C0000EC0839B0CC0839B0AC0839B08C0839B88
:1004D00006C0C0918300C395C09383009CC0DF9386
:1004E000C0918200DD27C657DF4F839B02C0DF919A
:1004F000E6CF2F930F931F9300B32FEF03FB20F949
:100500004F933F9310B34FEF012703FB21F93BE0DB
:1005100031C04E7F012F10B3216028C0102F4D7FB6
:100520002260000000B329C04B7F2460012F00002F
:1005300010B32BC010B3477F28602AC04F7E00B392
:1005400020612CC04F7D10B320622FC04F7B00B3C1
:10055000206432C0422700B349934FEF00001027B8
:1005600013FB20F910B31C70B9F1297F91F2012718
:1005700003FB21F900B3237F89F2315058F1102792
:1005800013FB22F910B3277E79F2012703FB23F92D
:100590002F7C81F200B3102713FB24F92F7971F21D
:1005A00000C010B3012703FB25F92F7359F200C0D7
:1005B00000B3102713FB26F9223040F200C010B31D
:1005C000012703FB27F9243028F64F77206810B362
:1005D0000000F9CF002717C03B503195C31BD04016
:1005E0000881033CE1F00B34D1F0209180001981A7
:1005F000110F1213EFCF4A81441F093629F10D3232
:1006000011F0013E39F7009388003F914F911F91FF
:100610000F912F91DF91CF91CFBFCF91189520915E
:100620008800222391F310918600112369F534305C
:100630006AF13093860020938100109182003BE0A4
:10064000311B3093820022C0009186000130E4F417
:100650000AE54F7049F43091600034FD19C00093F1
:100660006000C9E6D0E018C03091740034FD10C0BD
:1006700000937400C5E7D0E00FC02795A8F451504F
:10068000A9F4220F0000F9CF4AE503C042ED01C0F2
:10069000432FC4E1D0E032E011B31C60939A11BB48
:1006A00002B320E41CE05F93012756E002BB2795CC
:1006B00020F4515021F4220FF9CF012756E0000019
:1006C0003B5A02BBD0F2279528F4515029F4220F4F
:1006D0000000F9CF012756E0279502BB20F45150C6
:1006E00021F4220FF9CF012756E02991332302BBD1
:1006F00021F6037F10918700110FC651D04002BB35
:1007000011F010938000086011B3137F402F437FD6
:100710005F9100C000C002BB11BB42BB76CFE62F89
:10072000F72FA82FB92F02C001900D9241505040D1
:04073000D8F7089559
:020734005AFF6A
:00000001FF
